{"abi":[{"type":"constructor","inputs":[],"stateMutability":"nonpayable"},{"type":"function","name":"executeAtomicPlan","inputs":[{"name":"plan","type":"tuple","internalType":"struct AtomicExecutionPlan","components":[{"name":"flashloan","type":"tuple","internalType":"struct FlashLoanSpec","components":[{"name":"provider","type":"uint8","internalType":"uint8"},{"name":"asset","type":"address","internalType":"address"},{"name":"amount","type":"uint256","internalType":"uint256"}]},{"name":"path","type":"tuple","internalType":"struct ExecutionPath","components":[{"name":"legs","type":"tuple[]","internalType":"struct ExecutionLeg[]","components":[{"name":"poolId","type":"address","internalType":"address"},{"name":"tokenIn","type":"address","internalType":"address"},{"name":"tokenOut","type":"address","internalType":"address"},{"name":"zeroForOne","type":"bool","internalType":"bool"}]}]},{"name":"minAmountOut","type":"uint256","internalType":"uint256"},{"name":"repayment","type":"tuple","internalType":"struct RepaymentGuard","components":[{"name":"asset","type":"address","internalType":"address"},{"name":"amount","type":"uint256","internalType":"uint256"}]},{"name":"profitGuard","type":"tuple","internalType":"struct ProfitGuard","components":[{"name":"minProfitWei","type":"uint256","internalType":"uint256"}]},{"name":"hasFlashloan","type":"bool","internalType":"bool"},{"name":"hasRepayment","type":"bool","internalType":"bool"}]}],"outputs":[],"stateMutability":"nonpayable"},{"type":"function","name":"executePlan","inputs":[{"name":"plan","type":"tuple","internalType":"struct ExecutionPlan","components":[{"name":"targetToken","type":"address","internalType":"address"},{"name":"path","type":"tuple","internalType":"struct ExecutionPath","components":[{"name":"legs","type":"tuple[]","internalType":"struct ExecutionLeg[]","components":[{"name":"poolId","type":"address","internalType":"address"},{"name":"tokenIn","type":"address","internalType":"address"},{"name":"tokenOut","type":"address","internalType":"address"},{"name":"zeroForOne","type":"bool","internalType":"bool"}]}]},{"name":"outcome","type":"tuple","internalType":"struct ExpectedOutcome","components":[{"name":"amountIn","type":"uint256","internalType":"uint256"},{"name":"expectedAmountOut","type":"uint256","internalType":"uint256"},{"name":"expectedProfit","type":"uint256","internalType":"uint256"}]},{"name":"guard","type":"tuple","internalType":"struct SlippageGuard","components":[{"name":"minOut","type":"tuple","internalType":"struct MinOutConstraint","components":[{"name":"minAmountOut","type":"uint256","internalType":"uint256"}]}]},{"name":"hasFlashloan","type":"bool","internalType":"bool"}]}],"outputs":[],"stateMutability":"nonpayable"},{"type":"function","name":"owner","inputs":[],"outputs":[{"name":"","type":"address","internalType":"address"}],"stateMutability":"view"},{"type":"error","name":"InsufficientProfit","inputs":[{"name":"expected","type":"uint256","internalType":"uint256"},{"name":"actual","type":"uint256","internalType":"uint256"}]},{"type":"error","name":"InsufficientRepayment","inputs":[{"name":"required","type":"uint256","internalType":"uint256"},{"name":"actual","type":"uint256","internalType":"uint256"}]},{"type":"error","name":"SlippageExceeded","inputs":[{"name":"expected","type":"uint256","internalType":"uint256"},{"name":"actual","type":"uint256","internalType":"uint256"}]},{"type":"error","name":"Unauthorized","inputs":[]}],"bytecode":{"object":"0x6080604052348015600e575f5ffd5b50335f5f6101000a81548173ffffffffffffffffffffffffffffffffffffffff021916908373ffffffffffffffffffffffffffffffffffffffff160217905550610e678061005b5f395ff3fe608060405234801561000f575f5ffd5b506004361061003f575f3560e01c80638acc60c6146100435780638da5cb5b1461005f578063f2cf0fc81461007d575b5f5ffd5b61005d6004803603810190610058919061092e565b610099565b005b610067610152565b60405161007491906109b4565b60405180910390f35b610097600480360381019061009291906109eb565b610176565b005b5f5f9054906101000a900473ffffffffffffffffffffffffffffffffffffffff1673ffffffffffffffffffffffffffffffffffffffff163373ffffffffffffffffffffffffffffffffffffffff161461011e576040517f82b4290000000000000000000000000000000000000000000000000000000000815260040160405180910390fd5b806101000160208101906101329190610a67565b1561014557610140816104ef565b61014f565b61014e816104ef565b5b50565b5f5f9054906101000a900473ffffffffffffffffffffffffffffffffffffffff1681565b5f5f9054906101000a900473ffffffffffffffffffffffffffffffffffffffff1673ffffffffffffffffffffffffffffffffffffffff163373ffffffffffffffffffffffffffffffffffffffff16146101fb576040517f82b4290000000000000000000000000000000000000000000000000000000000815260040160405180910390fd5b5f815f01602081019061020e9190610abc565b90505f8173ffffffffffffffffffffffffffffffffffffffff166370a08231306040518263ffffffff1660e01b815260040161024a91906109b4565b602060405180830381865afa158015610265573d5f5f3e3d5ffd5b505050506040513d601f19601f820116820180604052508101906102899190610b1a565b90505f5f90505b8380602001906102a09190610b51565b805f01906102ae9190610b78565b90508110156103f8575f8480602001906102c89190610b51565b805f01906102d69190610b78565b838181106102e7576102e6610bda565b5b9050608002018036038101906102fd9190610d08565b9050805f015173ffffffffffffffffffffffffffffffffffffffff166040516024016040516020818303038152906040527f8119c065000000000000000000000000000000000000000000000000000000007bffffffffffffffffffffffffffffffffffffffffffffffffffffffff19166020820180517bffffffffffffffffffffffffffffffffffffffffffffffffffffffff83818316178352505050506040516103a99190610d85565b5f604051808303815f865af19150503d805f81146103e2576040519150601f19603f3d011682016040523d82523d5f602084013e6103e7565b606091505b505050508080600101915050610290565b505f8273ffffffffffffffffffffffffffffffffffffffff166370a08231306040518263ffffffff1660e01b815260040161043391906109b4565b602060405180830381865afa15801561044e573d5f5f3e3d5ffd5b505050506040513d601f19601f820116820180604052508101906104729190610b1a565b90505f828211610482575f61048f565b828261048e9190610dc8565b5b90508460a0015f015f01358110156104e8578460a0015f015f0135816040517f71c4efed0000000000000000000000000000000000000000000000000000000081526004016104df929190610e0a565b60405180910390fd5b5050505050565b5f8180606001906105009190610b51565b805f019061050e9190610b78565b5f81811061051f5761051e610bda565b5b90506080020160200160208101906105379190610abc565b90505f8173ffffffffffffffffffffffffffffffffffffffff166370a08231306040518263ffffffff1660e01b815260040161057391906109b4565b602060405180830381865afa15801561058e573d5f5f3e3d5ffd5b505050506040513d601f19601f820116820180604052508101906105b29190610b1a565b90505f5f90505b8380606001906105c99190610b51565b805f01906105d79190610b78565b905081101561071f57368480606001906105f19190610b51565b805f01906105ff9190610b78565b838181106106105761060f610bda565b5b9050608002019050805f01602081019061062a9190610abc565b73ffffffffffffffffffffffffffffffffffffffff166040516024016040516020818303038152906040527f8119c065000000000000000000000000000000000000000000000000000000007bffffffffffffffffffffffffffffffffffffffffffffffffffffffff19166020820180517bffffffffffffffffffffffffffffffffffffffffffffffffffffffff83818316178352505050506040516106d09190610d85565b5f604051808303815f865af19150503d805f8114610709576040519150601f19603f3d011682016040523d82523d5f602084013e61070e565b606091505b5050505080806001019150506105b9565b505f8273ffffffffffffffffffffffffffffffffffffffff166370a08231306040518263ffffffff1660e01b815260040161075a91906109b4565b602060405180830381865afa158015610775573d5f5f3e3d5ffd5b505050506040513d601f19601f820116820180604052508101906107999190610b1a565b90505f8282116107a9575f6107b6565b82826107b59190610dc8565b5b9050846101200160208101906107cc9190610a67565b15610833575f8560a001602001359050808310156108235780836040517f9c055a7700000000000000000000000000000000000000000000000000000000815260040161081a929190610e0a565b60405180910390fd5b808361082f9190610dc8565b9250505b8460800135811015610882578460800135816040517f71c4efed000000000000000000000000000000000000000000000000000000008152600401610879929190610e0a565b60405180910390fd5b5f838311610890575f61089d565b838361089c9190610dc8565b5b90508560e0015f01358110156108f2578560e0015f0135816040517f4e88422a0000000000000000000000000000000000000000000000000000000081526004016108e9929190610e0a565b60405180910390fd5b505050505050565b5f604051905090565b5f5ffd5b5f5ffd5b5f5ffd5b5f61014082840312156109255761092461090b565b5b81905092915050565b5f6020828403121561094357610942610903565b5b5f82013567ffffffffffffffff8111156109605761095f610907565b5b61096c8482850161090f565b91505092915050565b5f73ffffffffffffffffffffffffffffffffffffffff82169050919050565b5f61099e82610975565b9050919050565b6109ae81610994565b82525050565b5f6020820190506109c75f8301846109a5565b92915050565b5f60e082840312156109e2576109e161090b565b5b81905092915050565b5f60208284031215610a00576109ff610903565b5b5f82013567ffffffffffffffff811115610a1d57610a1c610907565b5b610a29848285016109cd565b91505092915050565b5f8115159050919050565b610a4681610a32565b8114610a50575f5ffd5b50565b5f81359050610a6181610a3d565b92915050565b5f60208284031215610a7c57610a7b610903565b5b5f610a8984828501610a53565b91505092915050565b610a9b81610994565b8114610aa5575f5ffd5b50565b5f81359050610ab681610a92565b92915050565b5f60208284031215610ad157610ad0610903565b5b5f610ade84828501610aa8565b91505092915050565b5f819050919050565b610af981610ae7565b8114610b03575f5ffd5b50565b5f81519050610b1481610af0565b92915050565b5f60208284031215610b2f57610b2e610903565b5b5f610b3c84828501610b06565b91505092915050565b5f5ffd5b5f5ffd5b5f5ffd5b5f82356001602003833603038112610b6c57610b6b610b45565b5b80830191505092915050565b5f5f83356001602003843603038112610b9457610b93610b45565b5b80840192508235915067ffffffffffffffff821115610bb657610bb5610b49565b5b602083019250608082023603831315610bd257610bd1610b4d565b5b509250929050565b7f4e487b71000000000000000000000000000000000000000000000000000000005f52603260045260245ffd5b5f5ffd5b5f601f19601f8301169050919050565b7f4e487b71000000000000000000000000000000000000000000000000000000005f52604160045260245ffd5b610c5182610c0b565b810181811067ffffffffffffffff82111715610c7057610c6f610c1b565b5b80604052505050565b5f610c826108fa565b9050610c8e8282610c48565b919050565b5f60808284031215610ca857610ca7610c07565b5b610cb26080610c79565b90505f610cc184828501610aa8565b5f830152506020610cd484828501610aa8565b6020830152506040610ce884828501610aa8565b6040830152506060610cfc84828501610a53565b60608301525092915050565b5f60808284031215610d1d57610d1c610903565b5b5f610d2a84828501610c93565b91505092915050565b5f81519050919050565b5f81905092915050565b8281835e5f83830152505050565b5f610d5f82610d33565b610d698185610d3d565b9350610d79818560208601610d47565b80840191505092915050565b5f610d908284610d55565b915081905092915050565b7f4e487b71000000000000000000000000000000000000000000000000000000005f52601160045260245ffd5b5f610dd282610ae7565b9150610ddd83610ae7565b9250828203905081811115610df557610df4610d9b565b5b92915050565b610e0481610ae7565b82525050565b5f604082019050610e1d5f830185610dfb565b610e2a6020830184610dfb565b939250505056fea2646970667358221220c652055e9a183f5c451a6424c957d73cc79496d2c40775c7c408ff8e1418ff8c64736f6c63430008220033","linkReferences":{}},"methodIdentifiers":{"executeAtomicPlan(((uint8,address,uint256),((address,address,address,bool)[]),uint256,(address,uint256),(uint256),bool,bool))":"8acc60c6","executePlan((address,((address,address,address,bool)[]),(uint256,uint256,uint256),((uint256)),bool))":"f2cf0fc8","owner()":"8da5cb5b"},"id":17}