{"abi":[{"type":"constructor","inputs":[],"stateMutability":"nonpayable"},{"type":"function","name":"executeAtomicPlan","inputs":[{"name":"plan","type":"tuple","internalType":"struct AtomicExecutionPlan","components":[{"name":"flashloan","type":"tuple","internalType":"struct FlashLoanSpec","components":[{"name":"provider","type":"uint8","internalType":"uint8"},{"name":"asset","type":"address","internalType":"address"},{"name":"amount","type":"uint256","internalType":"uint256"}]},{"name":"path","type":"tuple","internalType":"struct ExecutionPath","components":[{"name":"legs","type":"tuple[]","internalType":"struct ExecutionLeg[]","components":[{"name":"poolId","type":"address","internalType":"address"},{"name":"tokenIn","type":"address","internalType":"address"},{"name":"tokenOut","type":"address","internalType":"address"},{"name":"zeroForOne","type":"bool","internalType":"bool"}]}]},{"name":"minAmountOut","type":"uint256","internalType":"uint256"},{"name":"repayment","type":"tuple","internalType":"struct RepaymentGuard","components":[{"name":"asset","type":"address","internalType":"address"},{"name":"amount","type":"uint256","internalType":"uint256"}]},{"name":"profitGuard","type":"tuple","internalType":"struct ProfitGuard","components":[{"name":"minProfitWei","type":"uint256","internalType":"uint256"}]},{"name":"hasFlashloan","type":"bool","internalType":"bool"},{"name":"hasRepayment","type":"bool","internalType":"bool"}]}],"outputs":[],"stateMutability":"nonpayable"},{"type":"function","name":"executePlan","inputs":[{"name":"plan","type":"tuple","internalType":"struct ExecutionPlan","components":[{"name":"targetToken","type":"address","internalType":"address"},{"name":"path","type":"tuple","internalType":"struct ExecutionPath","components":[{"name":"legs","type":"tuple[]","internalType":"struct ExecutionLeg[]","components":[{"name":"poolId","type":"address","internalType":"address"},{"name":"tokenIn","type":"address","internalType":"address"},{"name":"tokenOut","type":"address","internalType":"address"},{"name":"zeroForOne","type":"bool","internalType":"bool"}]}]},{"name":"outcome","type":"tuple","internalType":"struct ExpectedOutcome","components":[{"name":"amountIn","type":"uint256","internalType":"uint256"},{"name":"expectedAmountOut","type":"uint256","internalType":"uint256"},{"name":"expectedProfit","type":"uint256","internalType":"uint256"}]},{"name":"guard","type":"tuple","internalType":"struct SlippageGuard","components":[{"name":"minOut","type":"tuple","internalType":"struct MinOutConstraint","components":[{"name":"minAmountOut","type":"uint256","internalType":"uint256"}]}]},{"name":"hasFlashloan","type":"bool","internalType":"bool"}]}],"outputs":[],"stateMutability":"nonpayable"},{"type":"function","name":"owner","inputs":[],"outputs":[{"name":"","type":"address","internalType":"address"}],"stateMutability":"view"},{"type":"function","name":"uniswapV3SwapCallback","inputs":[{"name":"amount0Delta","type":"int256","internalType":"int256"},{"name":"amount1Delta","type":"int256","internalType":"int256"},{"name":"data","type":"bytes","internalType":"bytes"}],"outputs":[],"stateMutability":"nonpayable"},{"type":"error","name":"SlippageExceeded","inputs":[{"name":"expected","type":"uint256","internalType":"uint256"},{"name":"actual","type":"uint256","internalType":"uint256"}]},{"type":"error","name":"Unauthorized","inputs":[]}],"bytecode":{"object":"0x6080604052348015600e575f5ffd5b50335f5f6101000a81548173ffffffffffffffffffffffffffffffffffffffff021916908373ffffffffffffffffffffffffffffffffffffffff1602179055506110dc8061005b5f395ff3fe608060405234801561000f575f5ffd5b506004361061004a575f3560e01c80638acc60c61461004e5780638da5cb5b1461006a578063f2cf0fc814610088578063fa461e33146100a4575b5f5ffd5b61006860048036038101906100639190610a21565b6100c0565b005b610072610151565b60405161007f9190610aa7565b60405180910390f35b6100a2600480360381019061009d9190610ade565b610175565b005b6100be60048036038101906100b99190610bb9565b61062f565b005b5f5f9054906101000a900473ffffffffffffffffffffffffffffffffffffffff1673ffffffffffffffffffffffffffffffffffffffff163373ffffffffffffffffffffffffffffffffffffffff1614610145576040517f82b4290000000000000000000000000000000000000000000000000000000000815260040160405180910390fd5b61014e816106d7565b50565b5f5f9054906101000a900473ffffffffffffffffffffffffffffffffffffffff1681565b5f5f9054906101000a900473ffffffffffffffffffffffffffffffffffffffff1673ffffffffffffffffffffffffffffffffffffffff163373ffffffffffffffffffffffffffffffffffffffff16146101fa576040517f82b4290000000000000000000000000000000000000000000000000000000000815260040160405180910390fd5b5f815f01602081019061020d9190610c54565b90505f8173ffffffffffffffffffffffffffffffffffffffff166370a08231306040518263ffffffff1660e01b81526004016102499190610aa7565b602060405180830381865afa158015610264573d5f5f3e3d5ffd5b505050506040513d601f19601f820116820180604052508101906102889190610cb2565b90505f5f90505b83806020019061029f9190610ce9565b805f01906102ad9190610d10565b905081101561058f57368480602001906102c79190610ce9565b805f01906102d59190610d10565b838181106102e6576102e5610d72565b5b90506080020190505f8160600160208101906103029190610dd4565b6103205773fffd8963efd1fc6a506488495d951d5263988d25610327565b6401000276a45b90505f825f01602081019061033c9190610c54565b73ffffffffffffffffffffffffffffffffffffffff16308460600160208101906103669190610dd4565b896040015f0135858760200160208101906103819190610c54565b6040516020016103919190610aa7565b6040516020818303038152906040526040516024016103b4959493929190610e9c565b6040516020818303038152906040527f128acb08000000000000000000000000000000000000000000000000000000007bffffffffffffffffffffffffffffffffffffffffffffffffffffffff19166020820180517bffffffffffffffffffffffffffffffffffffffffffffffffffffffff838183161783525050505060405161043e9190610f2e565b5f604051808303815f865af19150503d805f8114610477576040519150601f19603f3d011682016040523d82523d5f602084013e61047c565b606091505b505090508061057f57825f0160208101906104979190610c54565b73ffffffffffffffffffffffffffffffffffffffff166040516024016040516020818303038152906040527f8119c065000000000000000000000000000000000000000000000000000000007bffffffffffffffffffffffffffffffffffffffffffffffffffffffff19166020820180517bffffffffffffffffffffffffffffffffffffffffffffffffffffffff838183161783525050505060405161053d9190610f2e565b5f604051808303815f865af19150503d805f8114610576576040519150601f19603f3d011682016040523d82523d5f602084013e61057b565b606091505b5050505b505050808060010191505061028f565b505f8273ffffffffffffffffffffffffffffffffffffffff166370a08231306040518263ffffffff1660e01b81526004016105ca9190610aa7565b602060405180830381865afa1580156105e5573d5f5f3e3d5ffd5b505050506040513d601f19601f820116820180604052508101906106099190610cb2565b90505f828211610619575f610626565b82826106259190610f71565b5b90505050505050565b5f828281019061063f9190610fdf565b90505f5f861361064f5784610651565b855b90508173ffffffffffffffffffffffffffffffffffffffff1663a9059cbb33836040518363ffffffff1660e01b815260040161068e929190611019565b6020604051808303815f875af11580156106aa573d5f5f3e3d5ffd5b505050506040513d601f19601f820116820180604052508101906106ce9190611054565b50505050505050565b5f8180606001906106e89190610ce9565b805f01906106f69190610d10565b5f81811061070757610706610d72565b5b905060800201602001602081019061071f9190610c54565b90505f8173ffffffffffffffffffffffffffffffffffffffff166370a08231306040518263ffffffff1660e01b815260040161075b9190610aa7565b602060405180830381865afa158015610776573d5f5f3e3d5ffd5b505050506040513d601f19601f8201168201806040525081019061079a9190610cb2565b90505f5f90505b8380606001906107b19190610ce9565b805f01906107bf9190610d10565b905081101561090757368480606001906107d99190610ce9565b805f01906107e79190610d10565b838181106107f8576107f7610d72565b5b9050608002019050805f0160208101906108129190610c54565b73ffffffffffffffffffffffffffffffffffffffff166040516024016040516020818303038152906040527f8119c065000000000000000000000000000000000000000000000000000000007bffffffffffffffffffffffffffffffffffffffffffffffffffffffff19166020820180517bffffffffffffffffffffffffffffffffffffffffffffffffffffffff83818316178352505050506040516108b89190610f2e565b5f604051808303815f865af19150503d805f81146108f1576040519150601f19603f3d011682016040523d82523d5f602084013e6108f6565b606091505b5050505080806001019150506107a1565b505f8273ffffffffffffffffffffffffffffffffffffffff166370a08231306040518263ffffffff1660e01b81526004016109429190610aa7565b602060405180830381865afa15801561095d573d5f5f3e3d5ffd5b505050506040513d601f19601f820116820180604052508101906109819190610cb2565b90505f828211610991575f61099e565b828261099d9190610f71565b5b905084608001358110156109ef578460800135816040517f71c4efed0000000000000000000000000000000000000000000000000000000081526004016109e692919061107f565b60405180910390fd5b5050505050565b5f5ffd5b5f5ffd5b5f5ffd5b5f6101408284031215610a1857610a176109fe565b5b81905092915050565b5f60208284031215610a3657610a356109f6565b5b5f82013567ffffffffffffffff811115610a5357610a526109fa565b5b610a5f84828501610a02565b91505092915050565b5f73ffffffffffffffffffffffffffffffffffffffff82169050919050565b5f610a9182610a68565b9050919050565b610aa181610a87565b82525050565b5f602082019050610aba5f830184610a98565b92915050565b5f60e08284031215610ad557610ad46109fe565b5b81905092915050565b5f60208284031215610af357610af26109f6565b5b5f82013567ffffffffffffffff811115610b1057610b0f6109fa565b5b610b1c84828501610ac0565b91505092915050565b5f819050919050565b610b3781610b25565b8114610b41575f5ffd5b50565b5f81359050610b5281610b2e565b92915050565b5f5ffd5b5f5ffd5b5f5ffd5b5f5f83601f840112610b7957610b78610b58565b5b8235905067ffffffffffffffff811115610b9657610b95610b5c565b5b602083019150836001820283011115610bb257610bb1610b60565b5b9250929050565b5f5f5f5f60608587031215610bd157610bd06109f6565b5b5f610bde87828801610b44565b9450506020610bef87828801610b44565b935050604085013567ffffffffffffffff811115610c1057610c0f6109fa565b5b610c1c87828801610b64565b925092505092959194509250565b610c3381610a87565b8114610c3d575f5ffd5b50565b5f81359050610c4e81610c2a565b92915050565b5f60208284031215610c6957610c686109f6565b5b5f610c7684828501610c40565b91505092915050565b5f819050919050565b610c9181610c7f565b8114610c9b575f5ffd5b50565b5f81519050610cac81610c88565b92915050565b5f60208284031215610cc757610cc66109f6565b5b5f610cd484828501610c9e565b91505092915050565b5f5ffd5b5f5ffd5b5f5ffd5b5f82356001602003833603038112610d0457610d03610cdd565b5b80830191505092915050565b5f5f83356001602003843603038112610d2c57610d2b610cdd565b5b80840192508235915067ffffffffffffffff821115610d4e57610d4d610ce1565b5b602083019250608082023603831315610d6a57610d69610ce5565b5b509250929050565b7f4e487b71000000000000000000000000000000000000000000000000000000005f52603260045260245ffd5b5f8115159050919050565b610db381610d9f565b8114610dbd575f5ffd5b50565b5f81359050610dce81610daa565b92915050565b5f60208284031215610de957610de86109f6565b5b5f610df684828501610dc0565b91505092915050565b610e0881610d9f565b82525050565b610e1781610b25565b82525050565b610e2681610a68565b82525050565b5f81519050919050565b5f82825260208201905092915050565b8281835e5f83830152505050565b5f601f19601f8301169050919050565b5f610e6e82610e2c565b610e788185610e36565b9350610e88818560208601610e46565b610e9181610e54565b840191505092915050565b5f60a082019050610eaf5f830188610a98565b610ebc6020830187610dff565b610ec96040830186610e0e565b610ed66060830185610e1d565b8181036080830152610ee88184610e64565b90509695505050505050565b5f81905092915050565b5f610f0882610e2c565b610f128185610ef4565b9350610f22818560208601610e46565b80840191505092915050565b5f610f398284610efe565b915081905092915050565b7f4e487b71000000000000000000000000000000000000000000000000000000005f52601160045260245ffd5b5f610f7b82610c7f565b9150610f8683610c7f565b9250828203905081811115610f9e57610f9d610f44565b5b92915050565b5f610fae82610a68565b9050919050565b610fbe81610fa4565b8114610fc8575f5ffd5b50565b5f81359050610fd981610fb5565b92915050565b5f60208284031215610ff457610ff36109f6565b5b5f61100184828501610fcb565b91505092915050565b61101381610c7f565b82525050565b5f60408201905061102c5f830185610a98565b611039602083018461100a565b9392505050565b5f8151905061104e81610daa565b92915050565b5f60208284031215611069576110686109f6565b5b5f61107684828501611040565b91505092915050565b5f6040820190506110925f83018561100a565b61109f602083018461100a565b939250505056fea2646970667358221220995f4c23a16089d32eadab2fe0c6318fd8b3cc9c90f559e63e50cb7a1985a33d64736f6c63430008220033","linkReferences":{}},"methodIdentifiers":{"executeAtomicPlan(((uint8,address,uint256),((address,address,address,bool)[]),uint256,(address,uint256),(uint256),bool,bool))":"8acc60c6","executePlan((address,((address,address,address,bool)[]),(uint256,uint256,uint256),((uint256)),bool))":"f2cf0fc8","owner()":"8da5cb5b","uniswapV3SwapCallback(int256,int256,bytes)":"fa461e33"},"id":17}