{"abi":[{"type":"constructor","inputs":[],"stateMutability":"nonpayable"},{"type":"function","name":"executePlan","inputs":[{"name":"plan","type":"tuple","internalType":"struct ExecutionPlan","components":[{"name":"targetToken","type":"address","internalType":"address"},{"name":"path","type":"tuple","internalType":"struct ExecutionPath","components":[{"name":"legs","type":"tuple[]","internalType":"struct ExecutionLeg[]","components":[{"name":"poolId","type":"address","internalType":"address"},{"name":"tokenIn","type":"address","internalType":"address"},{"name":"tokenOut","type":"address","internalType":"address"},{"name":"zeroForOne","type":"bool","internalType":"bool"}]}]},{"name":"outcome","type":"tuple","internalType":"struct ExpectedOutcome","components":[{"name":"amountIn","type":"uint256","internalType":"uint256"},{"name":"expectedAmountOut","type":"uint256","internalType":"uint256"},{"name":"expectedProfit","type":"uint256","internalType":"uint256"}]},{"name":"guard","type":"tuple","internalType":"struct SlippageGuard","components":[{"name":"minOut","type":"tuple","internalType":"struct MinOutConstraint","components":[{"name":"minAmountOut","type":"uint256","internalType":"uint256"}]}]},{"name":"hasFlashloan","type":"bool","internalType":"bool"}]}],"outputs":[],"stateMutability":"nonpayable"},{"type":"function","name":"owner","inputs":[],"outputs":[{"name":"","type":"address","internalType":"address"}],"stateMutability":"view"},{"type":"error","name":"InsufficientProfit","inputs":[{"name":"balanceBefore","type":"uint256","internalType":"uint256"},{"name":"balAfter","type":"uint256","internalType":"uint256"}]},{"type":"error","name":"SlippageExceeded","inputs":[{"name":"expected","type":"uint256","internalType":"uint256"},{"name":"actual","type":"uint256","internalType":"uint256"}]},{"type":"error","name":"Unauthorized","inputs":[]}],"bytecode":{"object":"0x6080604052348015600e575f5ffd5b50335f5f6101000a81548173ffffffffffffffffffffffffffffffffffffffff021916908373ffffffffffffffffffffffffffffffffffffffff1602179055506109348061005b5f395ff3fe608060405234801561000f575f5ffd5b5060043610610034575f3560e01c80638da5cb5b14610038578063f2cf0fc814610056575b5f5ffd5b610040610072565b60405161004d9190610497565b60405180910390f35b610070600480360381019061006b91906104e3565b610096565b005b5f5f9054906101000a900473ffffffffffffffffffffffffffffffffffffffff1681565b5f5f9054906101000a900473ffffffffffffffffffffffffffffffffffffffff1673ffffffffffffffffffffffffffffffffffffffff163373ffffffffffffffffffffffffffffffffffffffff161461011b576040517f82b4290000000000000000000000000000000000000000000000000000000000815260040160405180910390fd5b5f815f01602081019061012e9190610554565b90505f8173ffffffffffffffffffffffffffffffffffffffff166370a08231306040518263ffffffff1660e01b815260040161016a9190610497565b602060405180830381865afa158015610185573d5f5f3e3d5ffd5b505050506040513d601f19601f820116820180604052508101906101a991906105b2565b90505f5f90505b8380602001906101c091906105e9565b805f01906101ce9190610610565b9050811015610318575f8480602001906101e891906105e9565b805f01906101f69190610610565b8381811061020757610206610672565b5b90506080020180360381019061021d91906107d5565b9050805f015173ffffffffffffffffffffffffffffffffffffffff166040516024016040516020818303038152906040527f8119c065000000000000000000000000000000000000000000000000000000007bffffffffffffffffffffffffffffffffffffffffffffffffffffffff19166020820180517bffffffffffffffffffffffffffffffffffffffffffffffffffffffff83818316178352505050506040516102c99190610852565b5f604051808303815f865af19150503d805f8114610302576040519150601f19603f3d011682016040523d82523d5f602084013e610307565b606091505b5050505080806001019150506101b0565b505f8273ffffffffffffffffffffffffffffffffffffffff166370a08231306040518263ffffffff1660e01b81526004016103539190610497565b602060405180830381865afa15801561036e573d5f5f3e3d5ffd5b505050506040513d601f19601f8201168201806040525081019061039291906105b2565b90505f828211156103b05782826103a99190610895565b90506103b4565b5f90505b8460a0015f015f013581101561040b578460a0015f015f0135816040517f71c4efed0000000000000000000000000000000000000000000000000000000081526004016104029291906108d7565b60405180910390fd5b8282116104515782826040517f4e88422a0000000000000000000000000000000000000000000000000000000081526004016104489291906108d7565b60405180910390fd5b5050505050565b5f73ffffffffffffffffffffffffffffffffffffffff82169050919050565b5f61048182610458565b9050919050565b61049181610477565b82525050565b5f6020820190506104aa5f830184610488565b92915050565b5f604051905090565b5f5ffd5b5f5ffd5b5f5ffd5b5f60e082840312156104da576104d96104c1565b5b81905092915050565b5f602082840312156104f8576104f76104b9565b5b5f82013567ffffffffffffffff811115610515576105146104bd565b5b610521848285016104c5565b91505092915050565b61053381610477565b811461053d575f5ffd5b50565b5f8135905061054e8161052a565b92915050565b5f60208284031215610569576105686104b9565b5b5f61057684828501610540565b91505092915050565b5f819050919050565b6105918161057f565b811461059b575f5ffd5b50565b5f815190506105ac81610588565b92915050565b5f602082840312156105c7576105c66104b9565b5b5f6105d48482850161059e565b91505092915050565b5f5ffd5b5f5ffd5b5f5ffd5b5f82356001602003833603038112610604576106036105dd565b5b80830191505092915050565b5f5f8335600160200384360303811261062c5761062b6105dd565b5b80840192508235915067ffffffffffffffff82111561064e5761064d6105e1565b5b60208301925060808202360383131561066a576106696105e5565b5b509250929050565b7f4e487b71000000000000000000000000000000000000000000000000000000005f52603260045260245ffd5b5f5ffd5b5f601f19601f8301169050919050565b7f4e487b71000000000000000000000000000000000000000000000000000000005f52604160045260245ffd5b6106e9826106a3565b810181811067ffffffffffffffff82111715610708576107076106b3565b5b80604052505050565b5f61071a6104b0565b905061072682826106e0565b919050565b5f8115159050919050565b61073f8161072b565b8114610749575f5ffd5b50565b5f8135905061075a81610736565b92915050565b5f608082840312156107755761077461069f565b5b61077f6080610711565b90505f61078e84828501610540565b5f8301525060206107a184828501610540565b60208301525060406107b584828501610540565b60408301525060606107c98482850161074c565b60608301525092915050565b5f608082840312156107ea576107e96104b9565b5b5f6107f784828501610760565b91505092915050565b5f81519050919050565b5f81905092915050565b8281835e5f83830152505050565b5f61082c82610800565b610836818561080a565b9350610846818560208601610814565b80840191505092915050565b5f61085d8284610822565b915081905092915050565b7f4e487b71000000000000000000000000000000000000000000000000000000005f52601160045260245ffd5b5f61089f8261057f565b91506108aa8361057f565b92508282039050818111156108c2576108c1610868565b5b92915050565b6108d18161057f565b82525050565b5f6040820190506108ea5f8301856108c8565b6108f760208301846108c8565b939250505056fea2646970667358221220f691ad87f2f1fede388cbef98c7cedcaa2aa6eef803418b8044bc5640a3cb38c64736f6c63430008220033","linkReferences":{}},"methodIdentifiers":{"executePlan((address,((address,address,address,bool)[]),(uint256,uint256,uint256),((uint256)),bool))":"f2cf0fc8","owner()":"8da5cb5b"},"id":20}