{"abi":[{"type":"constructor","inputs":[],"stateMutability":"nonpayable"},{"type":"function","name":"executeAtomicPlan","inputs":[{"name":"plan","type":"tuple","internalType":"struct AtomicExecutionPlan","components":[{"name":"flashloan","type":"tuple","internalType":"struct FlashLoanSpec","components":[{"name":"provider","type":"uint8","internalType":"uint8"},{"name":"asset","type":"address","internalType":"address"},{"name":"amount","type":"uint256","internalType":"uint256"}]},{"name":"path","type":"tuple","internalType":"struct ExecutionPath","components":[{"name":"legs","type":"tuple[]","internalType":"struct ExecutionLeg[]","components":[{"name":"poolId","type":"address","internalType":"address"},{"name":"poolKind","type":"uint8","internalType":"uint8"},{"name":"tokenIn","type":"address","internalType":"address"},{"name":"tokenOut","type":"address","internalType":"address"},{"name":"zeroForOne","type":"bool","internalType":"bool"},{"name":"amountOut","type":"uint256","internalType":"uint256"}]}]},{"name":"minAmountOut","type":"uint256","internalType":"uint256"},{"name":"repayment","type":"tuple","internalType":"struct RepaymentGuard","components":[{"name":"asset","type":"address","internalType":"address"},{"name":"amount","type":"uint256","internalType":"uint256"}]},{"name":"profitGuard","type":"tuple","internalType":"struct ProfitGuard","components":[{"name":"minProfitWei","type":"uint256","internalType":"uint256"}]},{"name":"hasFlashloan","type":"bool","internalType":"bool"},{"name":"hasRepayment","type":"bool","internalType":"bool"}]}],"outputs":[],"stateMutability":"nonpayable"},{"type":"function","name":"executePlan","inputs":[{"name":"plan","type":"tuple","internalType":"struct ExecutionPlan","components":[{"name":"targetToken","type":"address","internalType":"address"},{"name":"path","type":"tuple","internalType":"struct ExecutionPath","components":[{"name":"legs","type":"tuple[]","internalType":"struct ExecutionLeg[]","components":[{"name":"poolId","type":"address","internalType":"address"},{"name":"poolKind","type":"uint8","internalType":"uint8"},{"name":"tokenIn","type":"address","internalType":"address"},{"name":"tokenOut","type":"address","internalType":"address"},{"name":"zeroForOne","type":"bool","internalType":"bool"},{"name":"amountOut","type":"uint256","internalType":"uint256"}]}]},{"name":"outcome","type":"tuple","internalType":"struct ExpectedOutcome","components":[{"name":"amountIn","type":"uint256","internalType":"uint256"},{"name":"expectedAmountOut","type":"uint256","internalType":"uint256"},{"name":"expectedProfit","type":"uint256","internalType":"uint256"}]},{"name":"guard","type":"tuple","internalType":"struct SlippageGuard","components":[{"name":"minOut","type":"tuple","internalType":"struct MinOutConstraint","components":[{"name":"minAmountOut","type":"uint256","internalType":"uint256"}]},{"name":"minProfitWei","type":"uint256","internalType":"uint256"}]},{"name":"hasFlashloan","type":"bool","internalType":"bool"}]}],"outputs":[],"stateMutability":"nonpayable"},{"type":"function","name":"owner","inputs":[],"outputs":[{"name":"","type":"address","internalType":"address"}],"stateMutability":"view"},{"type":"function","name":"transferOwnership","inputs":[{"name":"newOwner","type":"address","internalType":"address"}],"outputs":[],"stateMutability":"nonpayable"},{"type":"function","name":"uniswapV3SwapCallback","inputs":[{"name":"amount0Delta","type":"int256","internalType":"int256"},{"name":"amount1Delta","type":"int256","internalType":"int256"},{"name":"data","type":"bytes","internalType":"bytes"}],"outputs":[],"stateMutability":"nonpayable"},{"type":"function","name":"withdrawERC20","inputs":[{"name":"token","type":"address","internalType":"address"},{"name":"amount","type":"uint256","internalType":"uint256"}],"outputs":[],"stateMutability":"nonpayable"},{"type":"function","name":"withdrawNative","inputs":[{"name":"amount","type":"uint256","internalType":"uint256"}],"outputs":[],"stateMutability":"nonpayable"},{"type":"event","name":"ERC20Withdrawn","inputs":[{"name":"token","type":"address","indexed":true,"internalType":"address"},{"name":"amount","type":"uint256","indexed":false,"internalType":"uint256"}],"anonymous":false},{"type":"event","name":"ExecutionSuccess","inputs":[{"name":"targetToken","type":"address","indexed":true,"internalType":"address"},{"name":"amountIn","type":"uint256","indexed":false,"internalType":"uint256"},{"name":"amountOut","type":"uint256","indexed":false,"internalType":"uint256"},{"name":"profit","type":"uint256","indexed":false,"internalType":"uint256"}],"anonymous":false},{"type":"event","name":"NativeWithdrawn","inputs":[{"name":"amount","type":"uint256","indexed":false,"internalType":"uint256"}],"anonymous":false},{"type":"event","name":"OwnershipTransferred","inputs":[{"name":"previousOwner","type":"address","indexed":true,"internalType":"address"},{"name":"newOwner","type":"address","indexed":true,"internalType":"address"}],"anonymous":false},{"type":"error","name":"CallbackUnauthorized","inputs":[]},{"type":"error","name":"InsufficientRepayment","inputs":[{"name":"expected","type":"uint256","internalType":"uint256"},{"name":"actual","type":"uint256","internalType":"uint256"}]},{"type":"error","name":"ProfitTooLow","inputs":[{"name":"expected","type":"uint256","internalType":"uint256"},{"name":"actual","type":"uint256","internalType":"uint256"}]},{"type":"error","name":"SlippageExceeded","inputs":[{"name":"expected","type":"uint256","internalType":"uint256"},{"name":"actual","type":"uint256","internalType":"uint256"}]},{"type":"error","name":"Unauthorized","inputs":[]}],"bytecode":{"object":"0x6080604052348015600e575f5ffd5b50335f5f6101000a81548173ffffffffffffffffffffffffffffffffffffffff021916908373ffffffffffffffffffffffffffffffffffffffff1602179055503373ffffffffffffffffffffffffffffffffffffffff165f73ffffffffffffffffffffffffffffffffffffffff167f8be0079c531659141344cd1fd0a4f28419497f9722a3daafe3b4186f6b6457e060405160405180910390a3612779806100b55f395ff3fe608060405234801561000f575f5ffd5b506004361061007b575f3560e01c80638da5cb5b116100595780638da5cb5b146100d3578063a1db9782146100f1578063f2fde38b1461010d578063fa461e33146101295761007b565b80630796d2121461007f57806363dc333e1461009b57806384276d81146100b7575b5f5ffd5b61009960048036038101906100949190611b04565b610145565b005b6100b560048036038101906100b09190611b6a565b6101d6565b005b6100d160048036038101906100cc9190611be4565b610b29565b005b6100db610cb1565b6040516100e89190611c4e565b60405180910390f35b61010b60048036038101906101069190611c91565b610cd5565b005b61012760048036038101906101229190611ccf565b610e8b565b005b610143600480360381019061013e9190611d8e565b611031565b005b5f5f9054906101000a900473ffffffffffffffffffffffffffffffffffffffff1673ffffffffffffffffffffffffffffffffffffffff163373ffffffffffffffffffffffffffffffffffffffff16146101ca576040517f82b4290000000000000000000000000000000000000000000000000000000000815260040160405180910390fd5b6101d3816111a2565b50565b5f5f9054906101000a900473ffffffffffffffffffffffffffffffffffffffff1673ffffffffffffffffffffffffffffffffffffffff163373ffffffffffffffffffffffffffffffffffffffff161461025b576040517f82b4290000000000000000000000000000000000000000000000000000000000815260040160405180910390fd5b5f815f01602081019061026e9190611ccf565b90505f8173ffffffffffffffffffffffffffffffffffffffff166370a08231306040518263ffffffff1660e01b81526004016102aa9190611c4e565b602060405180830381865afa1580156102c5573d5f5f3e3d5ffd5b505050506040513d601f19601f820116820180604052508101906102e99190611e13565b90505f836040015f013590505f5f90505b84806020019061030a9190611e4a565b805f01906103189190611e71565b905081101561094957368580602001906103329190611e4a565b805f01906103409190611e71565b8381811061035157610350611ed3565b5b905060c0020190505f81606001602081019061036d9190611ccf565b73ffffffffffffffffffffffffffffffffffffffff166370a08231306040518263ffffffff1660e01b81526004016103a59190611c4e565b602060405180830381865afa1580156103c0573d5f5f3e3d5ffd5b505050506040513d601f19601f820116820180604052508101906103e49190611e13565b905060018260200160208101906103fb9190611f36565b60ff1603610667575f8260800160208101906104179190611f96565b6104355773fffd8963efd1fc6a506488495d951d5263988d2561043c565b6401000276a45b9050825f0160208101906104509190611ccf565b60015f6101000a81548173ffffffffffffffffffffffffffffffffffffffff021916908373ffffffffffffffffffffffffffffffffffffffff1602179055505f835f0160208101906104a29190611ccf565b73ffffffffffffffffffffffffffffffffffffffff16308560800160208101906104cc9190611f96565b88858860400160208101906104e19190611ccf565b6040516020016104f19190611c4e565b60405160208183030381529060405260405160240161051495949392919061205e565b6040516020818303038152906040527f128acb08000000000000000000000000000000000000000000000000000000007bffffffffffffffffffffffffffffffffffffffffffffffffffffffff19166020820180517bffffffffffffffffffffffffffffffffffffffffffffffffffffffff838183161783525050505060405161059e91906120f0565b5f604051808303815f865af19150503d805f81146105d7576040519150601f19603f3d011682016040523d82523d5f602084013e6105dc565b606091505b505090505f60015f6101000a81548173ffffffffffffffffffffffffffffffffffffffff021916908373ffffffffffffffffffffffffffffffffffffffff16021790555080610660576040517f08c379a000000000000000000000000000000000000000000000000000000000815260040161065790612160565b60405180910390fd5b50506108a3565b5f82602001602081019061067b9190611f36565b60ff1603610867575f8260400160208101906106979190611ccf565b73ffffffffffffffffffffffffffffffffffffffff1663a9059cbb845f0160208101906106c49190611ccf565b876040518363ffffffff1660e01b81526004016106e292919061218d565b6020604051808303815f875af11580156106fe573d5f5f3e3d5ffd5b505050506040513d601f19601f8201168201806040525081019061072291906121c8565b905080610764576040517f08c379a000000000000000000000000000000000000000000000000000000000815260040161075b9061223d565b60405180910390fd5b5f8360800160208101906107789190611f96565b6107a0576103e86103e38560a001356107919190612288565b61079b91906122f6565b6107a2565b5f5b90505f8460800160208101906107b89190611f96565b6107c2575f6107e2565b6103e86103e38660a001356107d79190612288565b6107e191906122f6565b5b9050845f0160208101906107f69190611ccf565b73ffffffffffffffffffffffffffffffffffffffff1663022c0d9f8383306040518463ffffffff1660e01b815260040161083293929190612349565b5f604051808303815f87803b158015610849575f5ffd5b505af115801561085b573d5f5f3e3d5ffd5b505050505050506108a2565b6040517f08c379a0000000000000000000000000000000000000000000000000000000008152600401610899906123db565b60405180910390fd5b5b808260600160208101906108b79190611ccf565b73ffffffffffffffffffffffffffffffffffffffff166370a08231306040518263ffffffff1660e01b81526004016108ef9190611c4e565b602060405180830381865afa15801561090a573d5f5f3e3d5ffd5b505050506040513d601f19601f8201168201806040525081019061092e9190611e13565b61093891906123f9565b9350505080806001019150506102fa565b505f8373ffffffffffffffffffffffffffffffffffffffff166370a08231306040518263ffffffff1660e01b81526004016109849190611c4e565b602060405180830381865afa15801561099f573d5f5f3e3d5ffd5b505050506040513d601f19601f820116820180604052508101906109c39190611e13565b90505f8382116109d3575f6109e0565b83826109df91906123f9565b5b90508560a0015f015f0135811015610a39578560a0015f015f0135816040517f71c4efed000000000000000000000000000000000000000000000000000000008152600401610a3092919061242c565b60405180910390fd5b5f866040015f01358211610a4d575f610a60565b866040015f013582610a5f91906123f9565b5b90508660a00160200135811015610ab7578660a00160200135816040517f88215f9c000000000000000000000000000000000000000000000000000000008152600401610aae92919061242c565b60405180910390fd5b865f016020810190610ac99190611ccf565b73ffffffffffffffffffffffffffffffffffffffff167f6abe4197ab853871a5002dcc3d840157efefe5f3a1eef9bc3024dd3d5814a98f886040015f01358484604051610b1893929190612453565b60405180910390a250505050505050565b5f5f9054906101000a900473ffffffffffffffffffffffffffffffffffffffff1673ffffffffffffffffffffffffffffffffffffffff163373ffffffffffffffffffffffffffffffffffffffff1614610bae576040517f82b4290000000000000000000000000000000000000000000000000000000000815260040160405180910390fd5b5f5f5f9054906101000a900473ffffffffffffffffffffffffffffffffffffffff1673ffffffffffffffffffffffffffffffffffffffff1682604051610bf3906124a8565b5f6040518083038185875af1925050503d805f8114610c2d576040519150601f19603f3d011682016040523d82523d5f602084013e610c32565b606091505b5050905080610c76576040517f08c379a0000000000000000000000000000000000000000000000000000000008152600401610c6d90612506565b60405180910390fd5b7f9938f2f589885c9fe562d0c747cf40d24fe2402f63f4940c13c7a4d8ceeb592582604051610ca59190612524565b60405180910390a15050565b5f5f9054906101000a900473ffffffffffffffffffffffffffffffffffffffff1681565b5f5f9054906101000a900473ffffffffffffffffffffffffffffffffffffffff1673ffffffffffffffffffffffffffffffffffffffff163373ffffffffffffffffffffffffffffffffffffffff1614610d5a576040517f82b4290000000000000000000000000000000000000000000000000000000000815260040160405180910390fd5b5f8273ffffffffffffffffffffffffffffffffffffffff1663a9059cbb5f5f9054906101000a900473ffffffffffffffffffffffffffffffffffffffff16846040518363ffffffff1660e01b8152600401610db692919061218d565b6020604051808303815f875af1158015610dd2573d5f5f3e3d5ffd5b505050506040513d601f19601f82011682018060405250810190610df691906121c8565b905080610e38576040517f08c379a0000000000000000000000000000000000000000000000000000000008152600401610e2f90612587565b60405180910390fd5b8273ffffffffffffffffffffffffffffffffffffffff167f7e2c99819371db0a6fc6f4269fe872496e44f502df19ba3eae594b7a1598746083604051610e7e9190612524565b60405180910390a2505050565b5f5f9054906101000a900473ffffffffffffffffffffffffffffffffffffffff1673ffffffffffffffffffffffffffffffffffffffff163373ffffffffffffffffffffffffffffffffffffffff1614610f10576040517f82b4290000000000000000000000000000000000000000000000000000000000815260040160405180910390fd5b5f73ffffffffffffffffffffffffffffffffffffffff168173ffffffffffffffffffffffffffffffffffffffff1603610f75576040517f82b4290000000000000000000000000000000000000000000000000000000000815260040160405180910390fd5b8073ffffffffffffffffffffffffffffffffffffffff165f5f9054906101000a900473ffffffffffffffffffffffffffffffffffffffff1673ffffffffffffffffffffffffffffffffffffffff167f8be0079c531659141344cd1fd0a4f28419497f9722a3daafe3b4186f6b6457e060405160405180910390a3805f5f6101000a81548173ffffffffffffffffffffffffffffffffffffffff021916908373ffffffffffffffffffffffffffffffffffffffff16021790555050565b60015f9054906101000a900473ffffffffffffffffffffffffffffffffffffffff1673ffffffffffffffffffffffffffffffffffffffff163373ffffffffffffffffffffffffffffffffffffffff16146110b7576040517fd6e488e300000000000000000000000000000000000000000000000000000000815260040160405180910390fd5b5f82828101906110c791906125e0565b90505f5f86136110d757846110d9565b855b90505f8273ffffffffffffffffffffffffffffffffffffffff1663a9059cbb33846040518363ffffffff1660e01b815260040161111792919061218d565b6020604051808303815f875af1158015611133573d5f5f3e3d5ffd5b505050506040513d601f19601f8201168201806040525081019061115791906121c8565b905080611199576040517f08c379a000000000000000000000000000000000000000000000000000000000815260040161119090612655565b60405180910390fd5b50505050505050565b5f8180606001906111b39190611e4a565b805f01906111c19190611e71565b5f8181106111d2576111d1611ed3565b5b905060c0020160400160208101906111ea9190611ccf565b90505f8173ffffffffffffffffffffffffffffffffffffffff166370a08231306040518263ffffffff1660e01b81526004016112269190611c4e565b602060405180830381865afa158015611241573d5f5f3e3d5ffd5b505050506040513d601f19601f820116820180604052508101906112659190611e13565b90505f835f016040013590505f5f90505b8480606001906112869190611e4a565b805f01906112949190611e71565b905081101561188657368580606001906112ae9190611e4a565b805f01906112bc9190611e71565b838181106112cd576112cc611ed3565b5b905060c0020190505f8160600160208101906112e99190611ccf565b73ffffffffffffffffffffffffffffffffffffffff166370a08231306040518263ffffffff1660e01b81526004016113219190611c4e565b602060405180830381865afa15801561133c573d5f5f3e3d5ffd5b505050506040513d601f19601f820116820180604052508101906113609190611e13565b905060018260200160208101906113779190611f36565b60ff16036115e3575f8260800160208101906113939190611f96565b6113b15773fffd8963efd1fc6a506488495d951d5263988d256113b8565b6401000276a45b9050825f0160208101906113cc9190611ccf565b60015f6101000a81548173ffffffffffffffffffffffffffffffffffffffff021916908373ffffffffffffffffffffffffffffffffffffffff1602179055505f835f01602081019061141e9190611ccf565b73ffffffffffffffffffffffffffffffffffffffff16308560800160208101906114489190611f96565b888588604001602081019061145d9190611ccf565b60405160200161146d9190611c4e565b60405160208183030381529060405260405160240161149095949392919061205e565b6040516020818303038152906040527f128acb08000000000000000000000000000000000000000000000000000000007bffffffffffffffffffffffffffffffffffffffffffffffffffffffff19166020820180517bffffffffffffffffffffffffffffffffffffffffffffffffffffffff838183161783525050505060405161151a91906120f0565b5f604051808303815f865af19150503d805f8114611553576040519150601f19603f3d011682016040523d82523d5f602084013e611558565b606091505b505090505f60015f6101000a81548173ffffffffffffffffffffffffffffffffffffffff021916908373ffffffffffffffffffffffffffffffffffffffff160217905550806115dc576040517f08c379a00000000000000000000000000000000000000000000000000000000081526004016115d3906126bd565b60405180910390fd5b50506117e0565b5f8260200160208101906115f79190611f36565b60ff16036117df575f8260400160208101906116139190611ccf565b73ffffffffffffffffffffffffffffffffffffffff1663a9059cbb845f0160208101906116409190611ccf565b876040518363ffffffff1660e01b815260040161165e92919061218d565b6020604051808303815f875af115801561167a573d5f5f3e3d5ffd5b505050506040513d601f19601f8201168201806040525081019061169e91906121c8565b9050806116e0576040517f08c379a00000000000000000000000000000000000000000000000000000000081526004016116d790612725565b60405180910390fd5b5f8360800160208101906116f49190611f96565b61171c576103e86103e38560a0013561170d9190612288565b61171791906122f6565b61171e565b5f5b90505f8460800160208101906117349190611f96565b61173e575f61175e565b6103e86103e38660a001356117539190612288565b61175d91906122f6565b5b9050845f0160208101906117729190611ccf565b73ffffffffffffffffffffffffffffffffffffffff1663022c0d9f8383306040518463ffffffff1660e01b81526004016117ae93929190612349565b5f604051808303815f87803b1580156117c5575f5ffd5b505af11580156117d7573d5f5f3e3d5ffd5b505050505050505b5b808260600160208101906117f49190611ccf565b73ffffffffffffffffffffffffffffffffffffffff166370a08231306040518263ffffffff1660e01b815260040161182c9190611c4e565b602060405180830381865afa158015611847573d5f5f3e3d5ffd5b505050506040513d601f19601f8201168201806040525081019061186b9190611e13565b61187591906123f9565b935050508080600101915050611276565b505f8373ffffffffffffffffffffffffffffffffffffffff166370a08231306040518263ffffffff1660e01b81526004016118c19190611c4e565b602060405180830381865afa1580156118dc573d5f5f3e3d5ffd5b505050506040513d601f19601f820116820180604052508101906119009190611e13565b90505f838211611910575f61191d565b838261191c91906123f9565b5b9050856080013581101561196e578560800135816040517f71c4efed00000000000000000000000000000000000000000000000000000000815260040161196592919061242c565b60405180910390fd5b856101200160208101906119829190611f96565b156119dd578560a001602001358110156119dc578560a00160200135816040517f9c055a770000000000000000000000000000000000000000000000000000000081526004016119d392919061242c565b60405180910390fd5b5b5f866101200160208101906119f29190611f96565b6119fc575f611a05565b8660a001602001355b90505f818311611a15575f611a22565b8183611a2191906123f9565b5b90508760e0015f0135811015611a77578760e0015f0135816040517f88215f9c000000000000000000000000000000000000000000000000000000008152600401611a6e92919061242c565b60405180910390fd5b8673ffffffffffffffffffffffffffffffffffffffff167f6abe4197ab853871a5002dcc3d840157efefe5f3a1eef9bc3024dd3d5814a98f895f01604001358584604051611ac793929190612453565b60405180910390a25050505050505050565b5f5ffd5b5f5ffd5b5f5ffd5b5f6101408284031215611afb57611afa611ae1565b5b81905092915050565b5f60208284031215611b1957611b18611ad9565b5b5f82013567ffffffffffffffff811115611b3657611b35611add565b5b611b4284828501611ae5565b91505092915050565b5f6101008284031215611b6157611b60611ae1565b5b81905092915050565b5f60208284031215611b7f57611b7e611ad9565b5b5f82013567ffffffffffffffff811115611b9c57611b9b611add565b5b611ba884828501611b4b565b91505092915050565b5f819050919050565b611bc381611bb1565b8114611bcd575f5ffd5b50565b5f81359050611bde81611bba565b92915050565b5f60208284031215611bf957611bf8611ad9565b5b5f611c0684828501611bd0565b91505092915050565b5f73ffffffffffffffffffffffffffffffffffffffff82169050919050565b5f611c3882611c0f565b9050919050565b611c4881611c2e565b82525050565b5f602082019050611c615f830184611c3f565b92915050565b611c7081611c2e565b8114611c7a575f5ffd5b50565b5f81359050611c8b81611c67565b92915050565b5f5f60408385031215611ca757611ca6611ad9565b5b5f611cb485828601611c7d565b9250506020611cc585828601611bd0565b9150509250929050565b5f60208284031215611ce457611ce3611ad9565b5b5f611cf184828501611c7d565b91505092915050565b5f819050919050565b611d0c81611cfa565b8114611d16575f5ffd5b50565b5f81359050611d2781611d03565b92915050565b5f5ffd5b5f5ffd5b5f5ffd5b5f5f83601f840112611d4e57611d4d611d2d565b5b8235905067ffffffffffffffff811115611d6b57611d6a611d31565b5b602083019150836001820283011115611d8757611d86611d35565b5b9250929050565b5f5f5f5f60608587031215611da657611da5611ad9565b5b5f611db387828801611d19565b9450506020611dc487828801611d19565b935050604085013567ffffffffffffffff811115611de557611de4611add565b5b611df187828801611d39565b925092505092959194509250565b5f81519050611e0d81611bba565b92915050565b5f60208284031215611e2857611e27611ad9565b5b5f611e3584828501611dff565b91505092915050565b5f5ffd5b5f5ffd5b5f5ffd5b5f82356001602003833603038112611e6557611e64611e3e565b5b80830191505092915050565b5f5f83356001602003843603038112611e8d57611e8c611e3e565b5b80840192508235915067ffffffffffffffff821115611eaf57611eae611e42565b5b60208301925060c082023603831315611ecb57611eca611e46565b5b509250929050565b7f4e487b71000000000000000000000000000000000000000000000000000000005f52603260045260245ffd5b5f60ff82169050919050565b611f1581611f00565b8114611f1f575f5ffd5b50565b5f81359050611f3081611f0c565b92915050565b5f60208284031215611f4b57611f4a611ad9565b5b5f611f5884828501611f22565b91505092915050565b5f8115159050919050565b611f7581611f61565b8114611f7f575f5ffd5b50565b5f81359050611f9081611f6c565b92915050565b5f60208284031215611fab57611faa611ad9565b5b5f611fb884828501611f82565b91505092915050565b611fca81611f61565b82525050565b611fd981611cfa565b82525050565b611fe881611c0f565b82525050565b5f81519050919050565b5f82825260208201905092915050565b8281835e5f83830152505050565b5f601f19601f8301169050919050565b5f61203082611fee565b61203a8185611ff8565b935061204a818560208601612008565b61205381612016565b840191505092915050565b5f60a0820190506120715f830188611c3f565b61207e6020830187611fc1565b61208b6040830186611fd0565b6120986060830185611fdf565b81810360808301526120aa8184612026565b90509695505050505050565b5f81905092915050565b5f6120ca82611fee565b6120d481856120b6565b93506120e4818560208601612008565b80840191505092915050565b5f6120fb82846120c0565b915081905092915050565b5f82825260208201905092915050565b7f56332053776170204661696c65640000000000000000000000000000000000005f82015250565b5f61214a600e83612106565b915061215582612116565b602082019050919050565b5f6020820190508181035f8301526121778161213e565b9050919050565b61218781611bb1565b82525050565b5f6040820190506121a05f830185611c3f565b6121ad602083018461217e565b9392505050565b5f815190506121c281611f6c565b92915050565b5f602082840312156121dd576121dc611ad9565b5b5f6121ea848285016121b4565b91505092915050565b7f5632205472616e73666572204661696c656400000000000000000000000000005f82015250565b5f612227601283612106565b9150612232826121f3565b602082019050919050565b5f6020820190508181035f8301526122548161221b565b9050919050565b7f4e487b71000000000000000000000000000000000000000000000000000000005f52601160045260245ffd5b5f61229282611bb1565b915061229d83611bb1565b92508282026122ab81611bb1565b915082820484148315176122c2576122c161225b565b5b5092915050565b7f4e487b71000000000000000000000000000000000000000000000000000000005f52601260045260245ffd5b5f61230082611bb1565b915061230b83611bb1565b92508261231b5761231a6122c9565b5b828204905092915050565b50565b5f6123345f83611ff8565b915061233f82612326565b5f82019050919050565b5f60808201905061235c5f83018661217e565b612369602083018561217e565b6123766040830184611c3f565b818103606083015261238781612329565b9050949350505050565b7f556e737570706f7274656420506f6f6c4b696e640000000000000000000000005f82015250565b5f6123c5601483612106565b91506123d082612391565b602082019050919050565b5f6020820190508181035f8301526123f2816123b9565b9050919050565b5f61240382611bb1565b915061240e83611bb1565b92508282039050818111156124265761242561225b565b5b92915050565b5f60408201905061243f5f83018561217e565b61244c602083018461217e565b9392505050565b5f6060820190506124665f83018661217e565b612473602083018561217e565b612480604083018461217e565b949350505050565b5f6124935f836120b6565b915061249e82612326565b5f82019050919050565b5f6124b282612488565b9150819050919050565b7f4e6174697665205769746864726177204661696c6564000000000000000000005f82015250565b5f6124f0601683612106565b91506124fb826124bc565b602082019050919050565b5f6020820190508181035f83015261251d816124e4565b9050919050565b5f6020820190506125375f83018461217e565b92915050565b7f4552433230205769746864726177204661696c656400000000000000000000005f82015250565b5f612571601583612106565b915061257c8261253d565b602082019050919050565b5f6020820190508181035f83015261259e81612565565b9050919050565b5f6125af82611c0f565b9050919050565b6125bf816125a5565b81146125c9575f5ffd5b50565b5f813590506125da816125b6565b92915050565b5f602082840312156125f5576125f4611ad9565b5b5f612602848285016125cc565b91505092915050565b7f56332043616c6c6261636b205472616e73666572204661696c656400000000005f82015250565b5f61263f601b83612106565b915061264a8261260b565b602082019050919050565b5f6020820190508181035f83015261266c81612633565b9050919050565b7f56332041746f6d69632053776170204661696c656400000000000000000000005f82015250565b5f6126a7601583612106565b91506126b282612673565b602082019050919050565b5f6020820190508181035f8301526126d48161269b565b9050919050565b7f56322041746f6d6963205472616e73666572204661696c6564000000000000005f82015250565b5f61270f601983612106565b915061271a826126db565b602082019050919050565b5f6020820190508181035f83015261273c81612703565b905091905056fea264697066735822122009102c8d865bb098d66d8277d48af111679b5c3cd9f6fdc0cc203875ad5c397a64736f6c63430008220033","linkReferences":{}},"methodIdentifiers":{"executeAtomicPlan(((uint8,address,uint256),((address,uint8,address,address,bool,uint256)[]),uint256,(address,uint256),(uint256),bool,bool))":"0796d212","executePlan((address,((address,uint8,address,address,bool,uint256)[]),(uint256,uint256,uint256),((uint256),uint256),bool))":"63dc333e","owner()":"8da5cb5b","transferOwnership(address)":"f2fde38b","uniswapV3SwapCallback(int256,int256,bytes)":"fa461e33","withdrawERC20(address,uint256)":"a1db9782","withdrawNative(uint256)":"84276d81"},"id":22}