{"abi":[{"type":"constructor","inputs":[],"stateMutability":"nonpayable"},{"type":"function","name":"executeAtomicPlan","inputs":[{"name":"plan","type":"tuple","internalType":"struct AtomicExecutionPlan","components":[{"name":"flashloan","type":"tuple","internalType":"struct FlashLoanSpec","components":[{"name":"provider","type":"uint8","internalType":"uint8"},{"name":"asset","type":"address","internalType":"address"},{"name":"amount","type":"uint256","internalType":"uint256"}]},{"name":"path","type":"tuple","internalType":"struct ExecutionPath","components":[{"name":"legs","type":"tuple[]","internalType":"struct ExecutionLeg[]","components":[{"name":"poolId","type":"address","internalType":"address"},{"name":"poolKind","type":"uint8","internalType":"uint8"},{"name":"tokenIn","type":"address","internalType":"address"},{"name":"tokenOut","type":"address","internalType":"address"},{"name":"zeroForOne","type":"bool","internalType":"bool"},{"name":"amountOut","type":"uint256","internalType":"uint256"}]}]},{"name":"minAmountOut","type":"uint256","internalType":"uint256"},{"name":"repayment","type":"tuple","internalType":"struct RepaymentGuard","components":[{"name":"asset","type":"address","internalType":"address"},{"name":"amount","type":"uint256","internalType":"uint256"}]},{"name":"profitGuard","type":"tuple","internalType":"struct ProfitGuard","components":[{"name":"minProfitWei","type":"uint256","internalType":"uint256"}]},{"name":"hasFlashloan","type":"bool","internalType":"bool"},{"name":"hasRepayment","type":"bool","internalType":"bool"}]}],"outputs":[],"stateMutability":"nonpayable"},{"type":"function","name":"executePlan","inputs":[{"name":"plan","type":"tuple","internalType":"struct ExecutionPlan","components":[{"name":"targetToken","type":"address","internalType":"address"},{"name":"path","type":"tuple","internalType":"struct ExecutionPath","components":[{"name":"legs","type":"tuple[]","internalType":"struct ExecutionLeg[]","components":[{"name":"poolId","type":"address","internalType":"address"},{"name":"poolKind","type":"uint8","internalType":"uint8"},{"name":"tokenIn","type":"address","internalType":"address"},{"name":"tokenOut","type":"address","internalType":"address"},{"name":"zeroForOne","type":"bool","internalType":"bool"},{"name":"amountOut","type":"uint256","internalType":"uint256"}]}]},{"name":"outcome","type":"tuple","internalType":"struct ExpectedOutcome","components":[{"name":"amountIn","type":"uint256","internalType":"uint256"},{"name":"expectedAmountOut","type":"uint256","internalType":"uint256"},{"name":"expectedProfit","type":"uint256","internalType":"uint256"}]},{"name":"guard","type":"tuple","internalType":"struct SlippageGuard","components":[{"name":"minOut","type":"tuple","internalType":"struct MinOutConstraint","components":[{"name":"minAmountOut","type":"uint256","internalType":"uint256"}]},{"name":"minProfitWei","type":"uint256","internalType":"uint256"}]},{"name":"hasFlashloan","type":"bool","internalType":"bool"}]}],"outputs":[],"stateMutability":"nonpayable"},{"type":"function","name":"owner","inputs":[],"outputs":[{"name":"","type":"address","internalType":"address"}],"stateMutability":"view"},{"type":"function","name":"uniswapV3SwapCallback","inputs":[{"name":"amount0Delta","type":"int256","internalType":"int256"},{"name":"amount1Delta","type":"int256","internalType":"int256"},{"name":"data","type":"bytes","internalType":"bytes"}],"outputs":[],"stateMutability":"nonpayable"},{"type":"error","name":"InsufficientRepayment","inputs":[{"name":"expected","type":"uint256","internalType":"uint256"},{"name":"actual","type":"uint256","internalType":"uint256"}]},{"type":"error","name":"ProfitTooLow","inputs":[{"name":"expected","type":"uint256","internalType":"uint256"},{"name":"actual","type":"uint256","internalType":"uint256"}]},{"type":"error","name":"SlippageExceeded","inputs":[{"name":"expected","type":"uint256","internalType":"uint256"},{"name":"actual","type":"uint256","internalType":"uint256"}]},{"type":"error","name":"Unauthorized","inputs":[]}],"bytecode":{"object":"0x6080604052348015600e575f5ffd5b50335f5f6101000a81548173ffffffffffffffffffffffffffffffffffffffff021916908373ffffffffffffffffffffffffffffffffffffffff160217905550611bd78061005b5f395ff3fe608060405234801561000f575f5ffd5b506004361061004a575f3560e01c80630796d2121461004e57806363dc333e1461006a5780638da5cb5b14610086578063fa461e33146100a4575b5f5ffd5b61006860048036038101906100639190611269565b6100c0565b005b610084600480360381019061007f91906112cf565b610151565b005b61008e610967565b60405161009b9190611355565b60405180910390f35b6100be60048036038101906100b99190611402565b61098b565b005b5f5f9054906101000a900473ffffffffffffffffffffffffffffffffffffffff1673ffffffffffffffffffffffffffffffffffffffff163373ffffffffffffffffffffffffffffffffffffffff1614610145576040517f82b4290000000000000000000000000000000000000000000000000000000000815260040160405180910390fd5b61014e81610a33565b50565b5f5f9054906101000a900473ffffffffffffffffffffffffffffffffffffffff1673ffffffffffffffffffffffffffffffffffffffff163373ffffffffffffffffffffffffffffffffffffffff16146101d6576040517f82b4290000000000000000000000000000000000000000000000000000000000815260040160405180910390fd5b5f815f0160208101906101e9919061149d565b90505f8173ffffffffffffffffffffffffffffffffffffffff166370a08231306040518263ffffffff1660e01b81526004016102259190611355565b602060405180830381865afa158015610240573d5f5f3e3d5ffd5b505050506040513d601f19601f8201168201806040525081019061026491906114fb565b90505f836040015f013590505f5f90505b8480602001906102859190611532565b805f01906102939190611559565b90508110156107f057368580602001906102ad9190611532565b805f01906102bb9190611559565b838181106102cc576102cb6115bb565b5b905060c0020190505f8160600160208101906102e8919061149d565b73ffffffffffffffffffffffffffffffffffffffff166370a08231306040518263ffffffff1660e01b81526004016103209190611355565b602060405180830381865afa15801561033b573d5f5f3e3d5ffd5b505050506040513d601f19601f8201168201806040525081019061035f91906114fb565b90506001826020016020810190610376919061161e565b60ff1603610551575f826080016020810190610392919061167e565b6103b05773fffd8963efd1fc6a506488495d951d5263988d256103b7565b6401000276a45b90505f835f0160208101906103cc919061149d565b73ffffffffffffffffffffffffffffffffffffffff16308560800160208101906103f6919061167e565b888588604001602081019061040b919061149d565b60405160200161041b9190611355565b60405160208183030381529060405260405160240161043e959493929190611746565b6040516020818303038152906040527f128acb08000000000000000000000000000000000000000000000000000000007bffffffffffffffffffffffffffffffffffffffffffffffffffffffff19166020820180517bffffffffffffffffffffffffffffffffffffffffffffffffffffffff83818316178352505050506040516104c891906117d8565b5f604051808303815f865af19150503d805f8114610501576040519150601f19603f3d011682016040523d82523d5f602084013e610506565b606091505b505090508061054a576040517f08c379a000000000000000000000000000000000000000000000000000000000815260040161054190611848565b60405180910390fd5b505061074a565b5f826020016020810190610565919061161e565b60ff160361070e57816040016020810190610580919061149d565b73ffffffffffffffffffffffffffffffffffffffff1663a9059cbb835f0160208101906105ad919061149d565b866040518363ffffffff1660e01b81526004016105cb929190611875565b6020604051808303815f875af11580156105e7573d5f5f3e3d5ffd5b505050506040513d601f19601f8201168201806040525081019061060b91906118b0565b505f826080016020810190610620919061167e565b610648576103e86103e38460a001356106399190611908565b6106439190611976565b61064a565b5f5b90505f836080016020810190610660919061167e565b61066a575f61068a565b6103e86103e38560a0013561067f9190611908565b6106899190611976565b5b9050835f01602081019061069e919061149d565b73ffffffffffffffffffffffffffffffffffffffff1663022c0d9f8383306040518463ffffffff1660e01b81526004016106da939291906119c9565b5f604051808303815f87803b1580156106f1575f5ffd5b505af1158015610703573d5f5f3e3d5ffd5b505050505050610749565b6040517f08c379a000000000000000000000000000000000000000000000000000000000815260040161074090611a5b565b60405180910390fd5b5b8082606001602081019061075e919061149d565b73ffffffffffffffffffffffffffffffffffffffff166370a08231306040518263ffffffff1660e01b81526004016107969190611355565b602060405180830381865afa1580156107b1573d5f5f3e3d5ffd5b505050506040513d601f19601f820116820180604052508101906107d591906114fb565b6107df9190611a79565b935050508080600101915050610275565b505f8373ffffffffffffffffffffffffffffffffffffffff166370a08231306040518263ffffffff1660e01b815260040161082b9190611355565b602060405180830381865afa158015610846573d5f5f3e3d5ffd5b505050506040513d601f19601f8201168201806040525081019061086a91906114fb565b90505f83821161087a575f610887565b83826108869190611a79565b5b90508560a0015f015f01358110156108e0578560a0015f015f0135816040517f71c4efed0000000000000000000000000000000000000000000000000000000081526004016108d7929190611aac565b60405180910390fd5b5f866040015f013582116108f4575f610907565b866040015f0135826109069190611a79565b5b90508660a0016020013581101561095e578660a00160200135816040517f88215f9c000000000000000000000000000000000000000000000000000000008152600401610955929190611aac565b60405180910390fd5b50505050505050565b5f5f9054906101000a900473ffffffffffffffffffffffffffffffffffffffff1681565b5f828281019061099b9190611b0e565b90505f5f86136109ab57846109ad565b855b90508173ffffffffffffffffffffffffffffffffffffffff1663a9059cbb33836040518363ffffffff1660e01b81526004016109ea929190611875565b6020604051808303815f875af1158015610a06573d5f5f3e3d5ffd5b505050506040513d601f19601f82011682018060405250810190610a2a91906118b0565b50505050505050565b5f818060600190610a449190611532565b805f0190610a529190611559565b5f818110610a6357610a626115bb565b5b905060c002016040016020810190610a7b919061149d565b90505f8173ffffffffffffffffffffffffffffffffffffffff166370a08231306040518263ffffffff1660e01b8152600401610ab79190611355565b602060405180830381865afa158015610ad2573d5f5f3e3d5ffd5b505050506040513d601f19601f82011682018060405250810190610af691906114fb565b90505f835f016040013590505f5f90505b848060600190610b179190611532565b805f0190610b259190611559565b90508110156110435736858060600190610b3f9190611532565b805f0190610b4d9190611559565b83818110610b5e57610b5d6115bb565b5b905060c0020190505f816060016020810190610b7a919061149d565b73ffffffffffffffffffffffffffffffffffffffff166370a08231306040518263ffffffff1660e01b8152600401610bb29190611355565b602060405180830381865afa158015610bcd573d5f5f3e3d5ffd5b505050506040513d601f19601f82011682018060405250810190610bf191906114fb565b90506001826020016020810190610c08919061161e565b60ff1603610de3575f826080016020810190610c24919061167e565b610c425773fffd8963efd1fc6a506488495d951d5263988d25610c49565b6401000276a45b90505f835f016020810190610c5e919061149d565b73ffffffffffffffffffffffffffffffffffffffff1630856080016020810190610c88919061167e565b8885886040016020810190610c9d919061149d565b604051602001610cad9190611355565b604051602081830303815290604052604051602401610cd0959493929190611746565b6040516020818303038152906040527f128acb08000000000000000000000000000000000000000000000000000000007bffffffffffffffffffffffffffffffffffffffffffffffffffffffff19166020820180517bffffffffffffffffffffffffffffffffffffffffffffffffffffffff8381831617835250505050604051610d5a91906117d8565b5f604051808303815f865af19150503d805f8114610d93576040519150601f19603f3d011682016040523d82523d5f602084013e610d98565b606091505b5050905080610ddc576040517f08c379a0000000000000000000000000000000000000000000000000000000008152600401610dd390611b83565b60405180910390fd5b5050610f9d565b5f826020016020810190610df7919061161e565b60ff1603610f9c57816040016020810190610e12919061149d565b73ffffffffffffffffffffffffffffffffffffffff1663a9059cbb835f016020810190610e3f919061149d565b866040518363ffffffff1660e01b8152600401610e5d929190611875565b6020604051808303815f875af1158015610e79573d5f5f3e3d5ffd5b505050506040513d601f19601f82011682018060405250810190610e9d91906118b0565b505f826080016020810190610eb2919061167e565b610eda576103e86103e38460a00135610ecb9190611908565b610ed59190611976565b610edc565b5f5b90505f836080016020810190610ef2919061167e565b610efc575f610f1c565b6103e86103e38560a00135610f119190611908565b610f1b9190611976565b5b9050835f016020810190610f30919061149d565b73ffffffffffffffffffffffffffffffffffffffff1663022c0d9f8383306040518463ffffffff1660e01b8152600401610f6c939291906119c9565b5f604051808303815f87803b158015610f83575f5ffd5b505af1158015610f95573d5f5f3e3d5ffd5b5050505050505b5b80826060016020810190610fb1919061149d565b73ffffffffffffffffffffffffffffffffffffffff166370a08231306040518263ffffffff1660e01b8152600401610fe99190611355565b602060405180830381865afa158015611004573d5f5f3e3d5ffd5b505050506040513d601f19601f8201168201806040525081019061102891906114fb565b6110329190611a79565b935050508080600101915050610b07565b505f8373ffffffffffffffffffffffffffffffffffffffff166370a08231306040518263ffffffff1660e01b815260040161107e9190611355565b602060405180830381865afa158015611099573d5f5f3e3d5ffd5b505050506040513d601f19601f820116820180604052508101906110bd91906114fb565b90505f8382116110cd575f6110da565b83826110d99190611a79565b5b9050856080013581101561112b578560800135816040517f71c4efed000000000000000000000000000000000000000000000000000000008152600401611122929190611aac565b60405180910390fd5b8561012001602081019061113f919061167e565b1561119a578560a00160200135811015611199578560a00160200135816040517f9c055a77000000000000000000000000000000000000000000000000000000008152600401611190929190611aac565b60405180910390fd5b5b5f866101200160208101906111af919061167e565b6111b9575f6111c2565b8660a001602001355b90505f8183116111d2575f6111df565b81836111de9190611a79565b5b90508760e0015f0135811015611234578760e0015f0135816040517f88215f9c00000000000000000000000000000000000000000000000000000000815260040161122b929190611aac565b60405180910390fd5b5050505050505050565b5f5ffd5b5f5ffd5b5f5ffd5b5f61014082840312156112605761125f611246565b5b81905092915050565b5f6020828403121561127e5761127d61123e565b5b5f82013567ffffffffffffffff81111561129b5761129a611242565b5b6112a78482850161124a565b91505092915050565b5f61010082840312156112c6576112c5611246565b5b81905092915050565b5f602082840312156112e4576112e361123e565b5b5f82013567ffffffffffffffff81111561130157611300611242565b5b61130d848285016112b0565b91505092915050565b5f73ffffffffffffffffffffffffffffffffffffffff82169050919050565b5f61133f82611316565b9050919050565b61134f81611335565b82525050565b5f6020820190506113685f830184611346565b92915050565b5f819050919050565b6113808161136e565b811461138a575f5ffd5b50565b5f8135905061139b81611377565b92915050565b5f5ffd5b5f5ffd5b5f5ffd5b5f5f83601f8401126113c2576113c16113a1565b5b8235905067ffffffffffffffff8111156113df576113de6113a5565b5b6020830191508360018202830111156113fb576113fa6113a9565b5b9250929050565b5f5f5f5f6060858703121561141a5761141961123e565b5b5f6114278782880161138d565b94505060206114388782880161138d565b935050604085013567ffffffffffffffff81111561145957611458611242565b5b611465878288016113ad565b925092505092959194509250565b61147c81611335565b8114611486575f5ffd5b50565b5f8135905061149781611473565b92915050565b5f602082840312156114b2576114b161123e565b5b5f6114bf84828501611489565b91505092915050565b5f819050919050565b6114da816114c8565b81146114e4575f5ffd5b50565b5f815190506114f5816114d1565b92915050565b5f602082840312156115105761150f61123e565b5b5f61151d848285016114e7565b91505092915050565b5f5ffd5b5f5ffd5b5f5ffd5b5f8235600160200383360303811261154d5761154c611526565b5b80830191505092915050565b5f5f8335600160200384360303811261157557611574611526565b5b80840192508235915067ffffffffffffffff8211156115975761159661152a565b5b60208301925060c0820236038313156115b3576115b261152e565b5b509250929050565b7f4e487b71000000000000000000000000000000000000000000000000000000005f52603260045260245ffd5b5f60ff82169050919050565b6115fd816115e8565b8114611607575f5ffd5b50565b5f81359050611618816115f4565b92915050565b5f602082840312156116335761163261123e565b5b5f6116408482850161160a565b91505092915050565b5f8115159050919050565b61165d81611649565b8114611667575f5ffd5b50565b5f8135905061167881611654565b92915050565b5f602082840312156116935761169261123e565b5b5f6116a08482850161166a565b91505092915050565b6116b281611649565b82525050565b6116c18161136e565b82525050565b6116d081611316565b82525050565b5f81519050919050565b5f82825260208201905092915050565b8281835e5f83830152505050565b5f601f19601f8301169050919050565b5f611718826116d6565b61172281856116e0565b93506117328185602086016116f0565b61173b816116fe565b840191505092915050565b5f60a0820190506117595f830188611346565b61176660208301876116a9565b61177360408301866116b8565b61178060608301856116c7565b8181036080830152611792818461170e565b90509695505050505050565b5f81905092915050565b5f6117b2826116d6565b6117bc818561179e565b93506117cc8185602086016116f0565b80840191505092915050565b5f6117e382846117a8565b915081905092915050565b5f82825260208201905092915050565b7f56332053776170204661696c65640000000000000000000000000000000000005f82015250565b5f611832600e836117ee565b915061183d826117fe565b602082019050919050565b5f6020820190508181035f83015261185f81611826565b9050919050565b61186f816114c8565b82525050565b5f6040820190506118885f830185611346565b6118956020830184611866565b9392505050565b5f815190506118aa81611654565b92915050565b5f602082840312156118c5576118c461123e565b5b5f6118d28482850161189c565b91505092915050565b7f4e487b71000000000000000000000000000000000000000000000000000000005f52601160045260245ffd5b5f611912826114c8565b915061191d836114c8565b925082820261192b816114c8565b91508282048414831517611942576119416118db565b5b5092915050565b7f4e487b71000000000000000000000000000000000000000000000000000000005f52601260045260245ffd5b5f611980826114c8565b915061198b836114c8565b92508261199b5761199a611949565b5b828204905092915050565b50565b5f6119b45f836116e0565b91506119bf826119a6565b5f82019050919050565b5f6080820190506119dc5f830186611866565b6119e96020830185611866565b6119f66040830184611346565b8181036060830152611a07816119a9565b9050949350505050565b7f556e737570706f7274656420506f6f6c4b696e640000000000000000000000005f82015250565b5f611a456014836117ee565b9150611a5082611a11565b602082019050919050565b5f6020820190508181035f830152611a7281611a39565b9050919050565b5f611a83826114c8565b9150611a8e836114c8565b9250828203905081811115611aa657611aa56118db565b5b92915050565b5f604082019050611abf5f830185611866565b611acc6020830184611866565b9392505050565b5f611add82611316565b9050919050565b611aed81611ad3565b8114611af7575f5ffd5b50565b5f81359050611b0881611ae4565b92915050565b5f60208284031215611b2357611b2261123e565b5b5f611b3084828501611afa565b91505092915050565b7f56332041746f6d69632053776170204661696c656400000000000000000000005f82015250565b5f611b6d6015836117ee565b9150611b7882611b39565b602082019050919050565b5f6020820190508181035f830152611b9a81611b61565b905091905056fea2646970667358221220f27f26fc414ccb85bd43e42391715cd1bded9f5c9c39fe37460b061ae2b4374b64736f6c63430008220033","linkReferences":{}},"methodIdentifiers":{"executeAtomicPlan(((uint8,address,uint256),((address,uint8,address,address,bool,uint256)[]),uint256,(address,uint256),(uint256),bool,bool))":"0796d212","executePlan((address,((address,uint8,address,address,bool,uint256)[]),(uint256,uint256,uint256),((uint256),uint256),bool))":"63dc333e","owner()":"8da5cb5b","uniswapV3SwapCallback(int256,int256,bytes)":"fa461e33"},"id":20}