{"abi":[{"type":"constructor","inputs":[],"stateMutability":"nonpayable"},{"type":"function","name":"executeAtomicPlan","inputs":[{"name":"plan","type":"tuple","internalType":"struct AtomicExecutionPlan","components":[{"name":"flashloan","type":"tuple","internalType":"struct FlashLoanSpec","components":[{"name":"provider","type":"uint8","internalType":"uint8"},{"name":"asset","type":"address","internalType":"address"},{"name":"amount","type":"uint256","internalType":"uint256"}]},{"name":"path","type":"tuple","internalType":"struct ExecutionPath","components":[{"name":"legs","type":"tuple[]","internalType":"struct ExecutionLeg[]","components":[{"name":"poolId","type":"address","internalType":"address"},{"name":"tokenIn","type":"address","internalType":"address"},{"name":"tokenOut","type":"address","internalType":"address"},{"name":"zeroForOne","type":"bool","internalType":"bool"}]}]},{"name":"minAmountOut","type":"uint256","internalType":"uint256"},{"name":"repayment","type":"tuple","internalType":"struct RepaymentGuard","components":[{"name":"asset","type":"address","internalType":"address"},{"name":"amount","type":"uint256","internalType":"uint256"}]},{"name":"profitGuard","type":"tuple","internalType":"struct ProfitGuard","components":[{"name":"minProfitWei","type":"uint256","internalType":"uint256"}]},{"name":"hasFlashloan","type":"bool","internalType":"bool"},{"name":"hasRepayment","type":"bool","internalType":"bool"}]}],"outputs":[],"stateMutability":"nonpayable"},{"type":"function","name":"executePlan","inputs":[{"name":"plan","type":"tuple","internalType":"struct ExecutionPlan","components":[{"name":"targetToken","type":"address","internalType":"address"},{"name":"path","type":"tuple","internalType":"struct ExecutionPath","components":[{"name":"legs","type":"tuple[]","internalType":"struct ExecutionLeg[]","components":[{"name":"poolId","type":"address","internalType":"address"},{"name":"tokenIn","type":"address","internalType":"address"},{"name":"tokenOut","type":"address","internalType":"address"},{"name":"zeroForOne","type":"bool","internalType":"bool"}]}]},{"name":"outcome","type":"tuple","internalType":"struct ExpectedOutcome","components":[{"name":"amountIn","type":"uint256","internalType":"uint256"},{"name":"expectedAmountOut","type":"uint256","internalType":"uint256"},{"name":"expectedProfit","type":"uint256","internalType":"uint256"}]},{"name":"guard","type":"tuple","internalType":"struct SlippageGuard","components":[{"name":"minOut","type":"tuple","internalType":"struct MinOutConstraint","components":[{"name":"minAmountOut","type":"uint256","internalType":"uint256"}]}]},{"name":"hasFlashloan","type":"bool","internalType":"bool"}]}],"outputs":[],"stateMutability":"nonpayable"},{"type":"function","name":"owner","inputs":[],"outputs":[{"name":"","type":"address","internalType":"address"}],"stateMutability":"view"},{"type":"error","name":"InsufficientProfit","inputs":[{"name":"expected","type":"uint256","internalType":"uint256"},{"name":"actual","type":"uint256","internalType":"uint256"}]},{"type":"error","name":"InsufficientRepayment","inputs":[{"name":"required","type":"uint256","internalType":"uint256"},{"name":"actual","type":"uint256","internalType":"uint256"}]},{"type":"error","name":"SlippageExceeded","inputs":[{"name":"expected","type":"uint256","internalType":"uint256"},{"name":"actual","type":"uint256","internalType":"uint256"}]},{"type":"error","name":"Unauthorized","inputs":[]}],"bytecode":{"object":"0x6080604052348015600e575f5ffd5b50335f5f6101000a81548173ffffffffffffffffffffffffffffffffffffffff021916908373ffffffffffffffffffffffffffffffffffffffff160217905550610f168061005b5f395ff3fe608060405234801561000f575f5ffd5b506004361061003f575f3560e01c80638acc60c6146100435780638da5cb5b1461005f578063f2cf0fc81461007d575b5f5ffd5b61005d60048036038101906100589190610974565b610099565b005b610067610152565b60405161007491906109fa565b60405180910390f35b61009760048036038101906100929190610a31565b610176565b005b5f5f9054906101000a900473ffffffffffffffffffffffffffffffffffffffff1673ffffffffffffffffffffffffffffffffffffffff163373ffffffffffffffffffffffffffffffffffffffff161461011e576040517f82b4290000000000000000000000000000000000000000000000000000000000815260040160405180910390fd5b806101000160208101906101329190610aad565b156101455761014081610535565b61014f565b61014e81610535565b5b50565b5f5f9054906101000a900473ffffffffffffffffffffffffffffffffffffffff1681565b5f5f9054906101000a900473ffffffffffffffffffffffffffffffffffffffff1673ffffffffffffffffffffffffffffffffffffffff163373ffffffffffffffffffffffffffffffffffffffff16146101fb576040517f82b4290000000000000000000000000000000000000000000000000000000000815260040160405180910390fd5b5f815f01602081019061020e9190610b02565b90505f8173ffffffffffffffffffffffffffffffffffffffff166370a08231306040518263ffffffff1660e01b815260040161024a91906109fa565b602060405180830381865afa158015610265573d5f5f3e3d5ffd5b505050506040513d601f19601f820116820180604052508101906102899190610b60565b90505f5f90505b8380602001906102a09190610b97565b805f01906102ae9190610bbe565b90508110156103f8575f8480602001906102c89190610b97565b805f01906102d69190610bbe565b838181106102e7576102e6610c20565b5b9050608002018036038101906102fd9190610d4e565b9050805f015173ffffffffffffffffffffffffffffffffffffffff166040516024016040516020818303038152906040527f8119c065000000000000000000000000000000000000000000000000000000007bffffffffffffffffffffffffffffffffffffffffffffffffffffffff19166020820180517bffffffffffffffffffffffffffffffffffffffffffffffffffffffff83818316178352505050506040516103a99190610dcb565b5f604051808303815f865af19150503d805f81146103e2576040519150601f19603f3d011682016040523d82523d5f602084013e6103e7565b606091505b505050508080600101915050610290565b505f8273ffffffffffffffffffffffffffffffffffffffff166370a08231306040518263ffffffff1660e01b815260040161043391906109fa565b602060405180830381865afa15801561044e573d5f5f3e3d5ffd5b505050506040513d601f19601f820116820180604052508101906104729190610b60565b90505f828211610482575f61048f565b828261048e9190610e0e565b5b90508460a0015f015f01358110156104e8578460a0015f015f0135816040517f71c4efed0000000000000000000000000000000000000000000000000000000081526004016104df929190610e50565b60405180910390fd5b82821161052e575f5f6040517f4e88422a000000000000000000000000000000000000000000000000000000008152600401610525929190610eb9565b60405180910390fd5b5050505050565b5f8180606001906105469190610b97565b805f01906105549190610bbe565b5f81811061056557610564610c20565b5b905060800201602001602081019061057d9190610b02565b90505f8173ffffffffffffffffffffffffffffffffffffffff166370a08231306040518263ffffffff1660e01b81526004016105b991906109fa565b602060405180830381865afa1580156105d4573d5f5f3e3d5ffd5b505050506040513d601f19601f820116820180604052508101906105f89190610b60565b90505f5f90505b83806060019061060f9190610b97565b805f019061061d9190610bbe565b905081101561076557368480606001906106379190610b97565b805f01906106459190610bbe565b8381811061065657610655610c20565b5b9050608002019050805f0160208101906106709190610b02565b73ffffffffffffffffffffffffffffffffffffffff166040516024016040516020818303038152906040527f8119c065000000000000000000000000000000000000000000000000000000007bffffffffffffffffffffffffffffffffffffffffffffffffffffffff19166020820180517bffffffffffffffffffffffffffffffffffffffffffffffffffffffff83818316178352505050506040516107169190610dcb565b5f604051808303815f865af19150503d805f811461074f576040519150601f19603f3d011682016040523d82523d5f602084013e610754565b606091505b5050505080806001019150506105ff565b505f8273ffffffffffffffffffffffffffffffffffffffff166370a08231306040518263ffffffff1660e01b81526004016107a091906109fa565b602060405180830381865afa1580156107bb573d5f5f3e3d5ffd5b505050506040513d601f19601f820116820180604052508101906107df9190610b60565b90505f8282116107ef575f6107fc565b82826107fb9190610e0e565b5b9050846101200160208101906108129190610aad565b15610879575f8560a001602001359050808310156108695780836040517f9c055a77000000000000000000000000000000000000000000000000000000008152600401610860929190610e50565b60405180910390fd5b80836108759190610e0e565b9250505b84608001358110156108c8578460800135816040517f71c4efed0000000000000000000000000000000000000000000000000000000081526004016108bf929190610e50565b60405180910390fd5b5f8383116108d6575f6108e3565b83836108e29190610e0e565b5b90508560e0015f0135811015610938578560e0015f0135816040517f4e88422a00000000000000000000000000000000000000000000000000000000815260040161092f929190610e50565b60405180910390fd5b505050505050565b5f604051905090565b5f5ffd5b5f5ffd5b5f5ffd5b5f610140828403121561096b5761096a610951565b5b81905092915050565b5f6020828403121561098957610988610949565b5b5f82013567ffffffffffffffff8111156109a6576109a561094d565b5b6109b284828501610955565b91505092915050565b5f73ffffffffffffffffffffffffffffffffffffffff82169050919050565b5f6109e4826109bb565b9050919050565b6109f4816109da565b82525050565b5f602082019050610a0d5f8301846109eb565b92915050565b5f60e08284031215610a2857610a27610951565b5b81905092915050565b5f60208284031215610a4657610a45610949565b5b5f82013567ffffffffffffffff811115610a6357610a6261094d565b5b610a6f84828501610a13565b91505092915050565b5f8115159050919050565b610a8c81610a78565b8114610a96575f5ffd5b50565b5f81359050610aa781610a83565b92915050565b5f60208284031215610ac257610ac1610949565b5b5f610acf84828501610a99565b91505092915050565b610ae1816109da565b8114610aeb575f5ffd5b50565b5f81359050610afc81610ad8565b92915050565b5f60208284031215610b1757610b16610949565b5b5f610b2484828501610aee565b91505092915050565b5f819050919050565b610b3f81610b2d565b8114610b49575f5ffd5b50565b5f81519050610b5a81610b36565b92915050565b5f60208284031215610b7557610b74610949565b5b5f610b8284828501610b4c565b91505092915050565b5f5ffd5b5f5ffd5b5f5ffd5b5f82356001602003833603038112610bb257610bb1610b8b565b5b80830191505092915050565b5f5f83356001602003843603038112610bda57610bd9610b8b565b5b80840192508235915067ffffffffffffffff821115610bfc57610bfb610b8f565b5b602083019250608082023603831315610c1857610c17610b93565b5b509250929050565b7f4e487b71000000000000000000000000000000000000000000000000000000005f52603260045260245ffd5b5f5ffd5b5f601f19601f8301169050919050565b7f4e487b71000000000000000000000000000000000000000000000000000000005f52604160045260245ffd5b610c9782610c51565b810181811067ffffffffffffffff82111715610cb657610cb5610c61565b5b80604052505050565b5f610cc8610940565b9050610cd48282610c8e565b919050565b5f60808284031215610cee57610ced610c4d565b5b610cf86080610cbf565b90505f610d0784828501610aee565b5f830152506020610d1a84828501610aee565b6020830152506040610d2e84828501610aee565b6040830152506060610d4284828501610a99565b60608301525092915050565b5f60808284031215610d6357610d62610949565b5b5f610d7084828501610cd9565b91505092915050565b5f81519050919050565b5f81905092915050565b8281835e5f83830152505050565b5f610da582610d79565b610daf8185610d83565b9350610dbf818560208601610d8d565b80840191505092915050565b5f610dd68284610d9b565b915081905092915050565b7f4e487b71000000000000000000000000000000000000000000000000000000005f52601160045260245ffd5b5f610e1882610b2d565b9150610e2383610b2d565b9250828203905081811115610e3b57610e3a610de1565b5b92915050565b610e4a81610b2d565b82525050565b5f604082019050610e635f830185610e41565b610e706020830184610e41565b9392505050565b5f819050919050565b5f819050919050565b5f610ea3610e9e610e9984610e77565b610e80565b610b2d565b9050919050565b610eb381610e89565b82525050565b5f604082019050610ecc5f830185610eaa565b610ed96020830184610eaa565b939250505056fea26469706673582212200517b665d99feb3ae55ebf8606985598274606f6d3802659abd608824ce38ec664736f6c63430008220033","linkReferences":{}},"methodIdentifiers":{"executeAtomicPlan(((uint8,address,uint256),((address,address,address,bool)[]),uint256,(address,uint256),(uint256),bool,bool))":"8acc60c6","executePlan((address,((address,address,address,bool)[]),(uint256,uint256,uint256),((uint256)),bool))":"f2cf0fc8","owner()":"8da5cb5b"},"id":20}